:020000040800F2
:100000000000022009270008512700085127000896
:100010005127000851270008512700080000000060
:100020000000000000000000000000005127000850
:100030005127000800000000512700085127000840
:1000400051270008512700085127000851270008B0
:1000500051270008512700085127000851270008A0
:100060005127000851270008512700085127000890
:100070005127000851270008512700085127000880
:100080005127000851270008512700085127000870
:100090005127000851270008512700085127000860
:1000A0005127000851270008512700085127000850
:1000B0005127000851270008512700085127000840
:1000C0005127000851270008512700085127000830
:1000D00051270008512700080D0B0008810D00086A
:1000E0005127000851270008512700085127000810
:1000F0005127000851270008512700085127000800
:1001000051270008512700085127000851270008EF
:10011000512700085127000851270008B50700089B
:1001200051270008512700085127000851270008CF
:1001300051270008512700085127000851270008BF
:1001400051270008512700085127000851270008AF
:10015000512700085127000851270008512700089F
:10016000512700085127000851270008512700088F
:10017000512700085127000851270008512700087F
:08018000512700085127000877
:1001880010B5054C237833B9044B13B10448AFF3C9
:1001980000800123237010BD5004002000000000DF
:1001A80004460008084B10B51BB108480849AFF3CE
:1001B80000800848036803B910BD074B002BFBD02B
:1001C800BDE81040184700BF0000000004460008C2
:1001D800540400204C04002000000000154B002BA4
:1001E80008BF134B9D46A3F5803A00218B460F4666
:1001F8001348144A121A03F099FE0F4B002B00D033
:1002080098470E4B002B00D098470020002104008F
:100218000D000D48002802D00C4803F049FF03F0F8
:100228005DFE2000290002F05BFA03F047FE00BFE4
:1002380000000800000000000000000000000000AE
:1002480050040020740C0020B9400008C540000884
:1002580008B5013807EE900A2DED028BB0EE408A02
:10026800F0EE608AB0EE000AF8EEE70A02F0ACFAA7
:10027800DFED077A20EE080A20EE270A20EE280A8A
:1002880002F064FABDEC028B024B83ED000A08BD54
:10029800D00FC940800400202DE9F0412DED028BDC
:1002A8009FED4B8A4B4FF0EE488A80460E46144627
:1002B80000250D2E08D8DFE806F007797169615925
:1002C8005149413931292181C7ED008AD7ED007A9A
:1002D800DFED416A9FED417A67EEA67AE9B2FCEE5E
:1002E800E77A072C17EE903A38EE078A28F811308B
:1002F8006CD8012C38BF01240135DAE79FED380AA4
:10030800F0EE480A2046FFF7A3FFDFE79FED350A26
:10031800F0EE480A2046FFF79BFFD7E79FED320A29
:10032800F0EE480A2046FFF793FFCFE79FED2F0A2C
:10033800F0EE480A2046FFF78BFFC7E79FED2C0A2F
:10034800F0EE480A2046FFF783FFBFE79FED290A32
:10035800F0EE480A2046FFF77BFFB7E79FED260A35
:10036800F0EE480A2046FFF773FFAFE79FED230A38
:10037800F0EE480A2046FFF76BFFA7E79FED200A3B
:10038800F0EE480A2046FFF763FF9FE79FED1D0A3E
:10039800F0EE480A2046FFF75BFF97E79FED1A0A41
:1003A800F0EE480A2046FFF753FF8FE79FED170A44
:1003B800F0EE480A2046FFF74BFF87E79FED140A47
:1003C800F0EE480A2046FFF743FF7FE7082493E74B
:1003D800000000008004002000A07F4517B75138B6
:1003E80048E1F641B81EE9410000DC419A99CF4145
:1003F80085EBC341C3F5B8415C8FAE41CDCCA44178
:100408001F859B41CDCC92415C8F8A41CDCC8241E6
:10041800CDCC02424149424BD1F88820414842F4B0
:100428007002C1F888201A68002142F001021A609F
:1004380099601A6822F0847222F480321A60586037
:100448001A6882B022F480221A60D9600091019162
:100458001A6842F480321A601A4603E0009BB3F52A
:10046800A06F09D0136803F400330193009B013394
:100478000093019B002BF1D0294B1B6813F4003328
:1004880018BF01230193019B012B14D0244A26494C
:10049800936823F400039360C2F88410136843F050
:1004A8008063136013681B01FCD51C4B4FF000627E
:1004B8009A6002B070471A4B1C491A6C1C4842F0EB
:1004C80080521A640A6842F480420A609A689A6004
:1004D8009A6842F400429A609A6842F4A0529A607C
:1004E80058601A6842F080721A601A4611680C4BFC
:1004F8008901FBD50F4A40F2056111609A6822F024
:1005080003029A609A6842F002029A601A46936857
:1005180003F00C03082BFAD1B8E700BF00ED00E0A8
:100528000038024010300024804000300070004045
:1005380008544007003C02401848836803F00C0345
:10054800042B28D0082B09D0154B144A154992685A
:10055800C2F303128A5CD3400B6170474368416859
:1005680013F4800F436818BF0F4801F03F020CBF17
:100578000B49B0FBF2F1C3F3881308BFB1FBF2F1EA
:1005880001FB03F2054B5B68C3F3014301335B00D6
:10059800B2FBF3F3D9E7044BD7E700BF00380240BA
:1005A8000024F4000400002000127A0019491A4AB5
:1005B8000B6C70B443F0400353264FF47A758424CF
:1005C8000B641685D5621480938A9BB243F00103AD
:1005D800938213889BB243F001031380114650B1F4
:1005E800138ADB07FCD50B8A23F001031B041B0CC1
:1005F80001380B82F4D10849064A0B8823F001031D
:100608001B041B0C0B80136C23F04003136470BC99
:10061800704700BF00380240001800401849194AC6
:100628000B6C70B443F040030026542584240B64FB
:100638001685D5621480938A9BB243F00103938296
:1006480013889BB243F001031380114650B1138AFB
:10065800DB07FCD50B8A23F001031B041B0C0138B4
:100668000B82F4D10749064A0B8823F001031B04C7
:100678001B0C0B80136C23F04003136470BC704791
:10068800003802400018004070B40948094B026C59
:1006980053264FF0FF358424002142F008020264FB
:1006A8001E85DD621C80998070BC5962704700BF4E
:1006B80000380240000C0040054A938A9BB243F080
:1006C8000103938213889BB243F0010313807047A0
:1006D800000C0040044A506A138823F001031B04ED
:1006E8001B0C1380704700BF000C00400E48026CC2
:1006F8004FF0804370B442F0010253264FF0FF35AB
:100708008424002102641E85DD621C809980596260
:100718009A8A92B242F001029A821A8892B242F000
:1007280001021A8070BC7047003802404FF08043C5
:10073800586A70474FF080435B6A834205D3084488
:1007480083422CBF002001207047C04318448142D7
:1007580094BF002001207047F0B4114C114B226C5B
:100768001148002142F0200253274FF47A7684255D
:1007780022641F85DE621D80998059629A8A92B22E
:10078800012542F001024FF400049A829D8180F80D
:10079800371344601A8892B22A431A80F0BC704713
:1007A800003802400014004000E100E0054B1A8ABE
:1007B800D20705D504490A68002001320A60188268
:1007C800704700BF0014004070040020014B1868F7
:1007D800704700BF70040020084B1B68834205D394
:1007E800084483422CBF002001207047C0431844AE
:1007F800814294BF00200120704700BF7004002090
:10080800114A124B116B41F0010110B41163116CC4
:100818000F4C41F4003111641A6842F0A0021A60CA
:100828001A6A42F4EE421A629A6842F020029A600A
:100838009A6880B242F0800242F20C019A602081EC
:10084800A1815DF8044B7047003802400000024067
:100858000044004003490B88024A5B06FBD580B27E
:1008680090807047004400400D4A70B4441E00F266
:10087800FF350D26104614F8011F49B113885B0691
:10088800FCD589B2818023780A2B03D0AC42F2D1FF
:1008980070BC704713885B06FCD58680F6E700BFFE
:1008A800004400400FB42DE9F0418CB012AB53F86E
:1008B800046B01933278BAB1754C002327461D4664
:1008C80031464FF00D08252A19D023885806FCD543
:1008D80092B2BA800B780A2B0BD00135ADB22B46F9
:1008E800725D7119002AEED10CB0BDE8F04104B078
:1008F800704723885B06FCD5A7F80480EDE73344EE
:100908005A78002AE9D0623A162A79D8DFE802F044
:100918005C6E4C78287878787878787878787878F1
:10092800781F787878780C009B78622B7ED0682BBB
:1009380000F08B80772B019B00F09C801A1D013DF5
:100948001B680192ADB200934FF400604BE0019B2D
:100958001A1D18680192FFF787FF0135ADB2BCE791
:10096800019B073323F00703D3E900010833420F43
:1009780021F0784E0028019342EACE0371F100027B
:10098800B8BF43F00043002001F08041009350EAD3
:10099800010338D14FF4807002AA694600F00AFDBD
:1009A80002A8FFF761FFD8E79B78622B30D0682B4D
:1009B80053D0772B019B64D01A1D013D1B6801920F
:1009C800ADB2009320200EE09B78622B27D0682BD5
:1009D80034D0772B019B47D01A1D013D1B6801922B
:1009E800ADB2009304200135ADB2D5E7019B191DC6
:1009F8001A78019123885B06FCD593B2BB80ACE7DB
:100A080000230093A9E7009B43F080430093C1E7CC
:100A1800019B1A1D1B68019200930820E3E7019BC4
:100A28001A1D1B68019200930120DCE7019B1A1D27
:100A38001B68019200934FF40070D4E7019B1A1DC4
:100A48001B68019200930220CDE7019B1A1D1B68C9
:100A5800019200934FF48060C5E7019B1A1D1B6843
:100A6800019200931020BEE71A1D1B6801920093A3
:100A78000420B8E71A1D1B68019200934FF4006028
:100A8800B1E71A1D1B68019200932020ABE700BF55
:100A98000044004006490B88054A9B06FBD5908810
:100AA800138823F020031B041B0CC0B2138070476B
:100AB80000440040024B42F204029A81704700BF92
:100AC80000440040034B188880F02000C0F3401019
:100AD800704700BF00440040084A0949938923F43D
:100AE80000531B041B0C40209381486093899BB2E0
:100AF80043F4005343F024039381704700440040BB
:100B080000E100E00D4A13889B0616D50C4B1988A6
:100B1800908810B48AB20B4CC1B2A1541A88013221
:100B280092B201211A8099701A885DF8044B92B22A
:100B3800B2F5007F24BF00221A80704700440040AD
:100B480074040020700800204F4950488B889BB2DD
:100B58005A1C92B28A80C35C203B592B00F29380C6
:100B6800DFE803F033919191919191919191919155
:100B7800919191919191919191919191919191915D
:100B8800919191919191919191919191919191914D
:100B9800919191919191919191919191919191913D
:100BA80091919191913991913F454B5157915D6345
:100BB80091697191919191797F85918B912D344BA8
:100BC800344809221A70FFF76DBE314B32480022B3
:100BD8001A70FFF767BE2E4B304801221A70FFF7D4
:100BE80061BE2B4B2E4805221A70FFF75BBE284BBF
:100BF8002C4804221A70FFF755BE254B2A480622B6
:100C08001A70FFF74FBE224B284808221A70FFF7C8
:100C180049BE1F4B26480A221A70FFF743BE1C4BD9
:100C280024480C221A70FFF73DBE194B22480D22AA
:100C38001A70FFF737BE214A214813780133DBB217
:100C48001370FFF72FBE1D4A1E481378013BDBB215
:100C58001370FFF727BE0E4B1B4803221A70FFF7CD
:100C680021BE0B4B194807221A70FFF71BBE084B11
:100C780017480B221A70FFF715BE054B15480222BC
:100C88001A70FFF70FBE7047740400207008002028
:100C9800700A0020B4410008C841000898410008C3
:100CA800CC410008A4410008A8410008B041000850
:100CB800B8410008C0410008C441000818000020DD
:100CC800D0410008DC410008A0410008AC41000800
:100CD800BC4100089C41000810B5084CA288238834
:100CE80092B29BB29A4208D0FFF72EFFA3889BB21C
:100CF800B3F5007F24BF0023A38010BD7404002037
:100D08000F4A104B116B41F0080110B411631968B8
:100D18000D4C21F470211960196841F420211960E3
:100D2800596A41F077015962136C80B243F4802309
:100D380042F20C0113642081A1815DF8044B7047D5
:100D480000380240000C024000480040084A0949A7
:100D5800938923F400531B041B0C80209381486063
:100D680093899BB243F4005343F024039381704763
:100D78000048004000E100E00C4B1A88920614D5A8
:100D88000B4AD188988810B48BB20A4CC1B2E1548E
:100D9800D3885DF8044B01339BB2D380D3889BB2D0
:100DA800B3F5007F24BF0023D3807047004800407C
:100DB80074040020740A0020074B1989DA8889B264
:100DC80092B2914206D01A8992B2B2F5007F24BF3E
:100DD80000221A81704700BF7404002003490B8861
:100DE800024A5B06FBD580B29080704700480040FD
:100DF8000D498B899BB243F4005343F004038B8164
:100E08000B88094A9B06FBD59088138823F020039A
:100E18001B041B0C1380938923F004031B041B0C75
:100E280040B29381704700BF004800400B4B1989BE
:100E3800DA8889B292B291420ED01A89013292B2FE
:100E48001A811A8992B2B2F5007F03D300221A815F
:100E5800012070470120704700207047740400206B
:100E6800F0B40D4A0D4F00F10A053026914205F8FD
:100E7800016D08D3312400E01C46891A631C914295
:100E8800DBB2F9D22C70A7FB023285424FEAD202BC
:100E9800ECD1F0BC704700BF00CA9A3BCDCCCCCC9B
:100EA80030B400240930234684B90578302D10D099
:100EB8000C8815550C8801340C8001240133DBB2F1
:100EC8000A2B00F1FF30EFD130BC70470C88057851
:100ED800EFE7092BF2D1EBE7037830B4B3B1002385
:100EE80001339BB2C518C25C002AF9D10C784CB109
:100EF80000220132C45492B201338C5C9BB2002CA4
:100F0800F7D1C51800232B7030BC70470546EDE7B4
:100F18002DE9F04F2DED028B89B000239A469146BA
:100F2800ADF812301E461A4603780291202101902E
:100F3800DFEDBC8ADFF8F4829FEDBD8A03917BB1B7
:100F4800BAB9252B34D0BDF81210481C09F8013065
:100F5800ADF812000136B6B2019B9B5D002BEFD1B4
:100F6800BDF8122009F8023009B0BDEC028BBDE8CB
:100F7800F08F012A1ED0022A32D0032A5AD0042A1E
:100F88006AD0052A00F00981062A00F01F81072A85
:100F980000F05081BDF81210013609F80130B6B2E0
:100FA8000131019BADF812109B5D002BC8D1D7E72A
:100FB8000122CFE7642B00F0EE80632B00F0E9807C
:100FC800662B00F00181732B00F02A81622B00F060
:100FD8007181682B14BF01220722002BB0D1BFE713
:100FE800029B1A68002AC0F211818F4905AC0DF1E5
:100FF8001E003027914200F8017D08D8312500E015
:101008001D46521A6B1C8A42DBB2F9D20570A8FB46
:101018000131A0424FEAD101ECD10DF112014A464B
:10102800FFF73EFF0136B6B2019B9B5D0A22002BFB
:1010380086D195E7029ABDF81230126809F80320A4
:1010480001360133ADF81230B6B2019B9B5D0A221E
:10105800002B7FF475AF83E7029B93ED007AB5EE22
:10106800C07AF1EE10FA00F12781F7EE007AB4EEBB
:10107800E77AF1EE10FA00F1088140F33981002394
:10108800B2EE046A67EE867A0133B4EEE77AF1EEDF
:1010980010FA9BB2F2EE046AF4DCC7EEA67A5D1E83
:1010A800ADB20DF11E076049BE4605AC4FF0300CDD
:1010B800C7EE277ABCEEE77A17EE102AB8EE477A21
:1010C80077EEC77A67EEA87AFCEEE77A17EE90BA61
:1010D80091420EF801CD09D8312000E01846521A85
:1010E800431C8A42DBB2F9D28EF80000A8FB01311A
:1010F800A6454FEAD101EBD10DF1120120464A462F
:10110800FFF7CEFE484A39463020934501F8010DD5
:101118000CD34FF0310E00E09E46C2EB0B0B0EF1E4
:1011280001039345DBB2F7D281F800E0A8FB023255
:10113800A1424FEAD202E8D12E230DF112014A460C
:1011480020468DF81730FFF7ABFEBDF81220652159
:1011580009F802100399531C9BB22D29ADF81230DF
:1011680000F0BE80304A3020954207F8010D08D3C0
:10117800312100E01946AD1A4B1C9542DBB2F9D279
:101188003970A8FB0232A7424FEAD202ECD13846A6
:1011980043E70322D4E60222D2E6029911F80A2094
:1011A800002A3FF43FAFBDF8123009F803200AF1D6
:1011B800010A1FFA8AFA013311F80A209BB2002AA1
:1011C800F3D1ADF812302DE70422B9E6BDF812309C
:1011D800029A03F12001126889B230203124002AD2
:1011E800B4BF09F8034009F8030001339BB28B42EE
:1011F8004FEA4202F3D10136ADF81230B6B2019B84
:101208009B5D0A22002B7FF49BAEA9E6BDF8123045
:101218002D2109F8031001335242ADF81230E4E6EB
:1012280005228DE600007A4400CA9A3BCDCCCCCC8E
:10123800CDCCCC3DBDF81220029B09EB0200196809
:1012480078243027931C02F10A0509F802709BB232
:101258004470ACB20A0F092A02F130008ABF373253
:1012680009F8030009F8032001339BB2A3424FEAAF
:101278000111EFD10136B6B2019BADF812509B5D5A
:101288000A22002B7FF45CAE6AE6B4EEC87AF1EE6F
:1012980010FA5FED197A4FF0010508D567EE887AE4
:1012A8000135B4EEE77AF1EE10FAADB2F6D42D239B
:1012B8000393F6E6062243E6BDF81230B1EE477A0C
:1012C800F7EE007A2D22B4EEE77A09F80320F1EE62
:1012D80010FA03F10103ADF812307FF5CEAED4E772
:1012E80002329DF80C1009F80310ADF8122039E706
:1012F8004FF6FF755FED327AD3E600BF037830B45E
:10130800B3B1002301339BB2C218C45C002CF9D1DD
:101318000C784CB11A46551C8454AAB2D41AA4B2FB
:101328000C5D002CF7D102440023137030BC7047C9
:101338000246EDE7F0B40D4A0D4F00F10A053026DC
:10134800914205F8016D08D3312400E01C46891A42
:10135800631C9142DBB2F9D22C70A7FB02328542A2
:101368004FEAD202ECD1F0BC704700BF00CA9A3BEA
:10137800CDCCCCCC70B40B88002509302C46ADB947
:101388000678302E0FD0D6540B8801339BB20B80D1
:1013980001250134E4B20A2C00F1FF30EFD100211D
:1013A800D15470BC7047092CF3D1ECE70578D554BB
:1013B800EAE700BF2DE9F04784B00023102815465E
:1013C8001370ADF8023000F0548124D9B0F5007FD5
:1013D8004FD040F28280B0F5806F64D0B0F5006FD6
:1013E80016D11A4601240B6800E004461B0F092B8E
:1013F80003F130008ABF3733A854AB54601C0B6824
:1014080080B21B0109280B602246EED100232B7203
:1014180004B0BDE8F087022800F0148117D9042829
:1014280040F024810B6805F1200030243126002B80
:10143800B4BF167014700B6801325B0082420B60F7
:10144800F5D1002385F8203004B0BDE8F0870128E5
:10145800DED10B6805F10800302631241F064CBF89
:10146800147016700B6801325B0082420B60F5D174
:10147800CCE71A460B680124C3F30313092BD8B22F
:1014880000F1300386BF3730A854AB54601C0B689A
:1014980080B21B0103280B6040F0D1800023AB70A1
:1014A80004B0BDE8F0871A460B681446C3F303334B
:1014B800092BD8B200F130038ABF37302B55285595
:1014C80001320B6892B21B01042A14460B60EDD15D
:1014D80000232B7104B0BDE8F087202800F0C980F4
:1014E800B0F5807F94D191ED007AB5EEC07AF1EE37
:1014F80010FA00F1FA80F7EE007AB4EEE77AF1EE2E
:1015080010FA00F1DC8040F301810023B2EE046A96
:1015180067EE867A0133B4EEE77AF1EE10FA9BB201
:10152800F2EE046AF4DCC7EEA67A5C1EA4B24FF0B1
:1015380020080DF10E077949DFF8ECC1384601AEF5
:101548004FF0300EC7EE277A9FED757AFCEEE76A0A
:1015580016EE902AF8EE666A77EEE67A67EE877AF4
:10156800FCEEE77A17EE90AA914200F801ED0BD84D
:101578004FF0310900E09946521A09F101038A42F5
:10158800DBB2F8D280F80090ACFB0131B0424FEAF0
:10159800D101E9D10DF10209494630462A46FFF743
:1015A800E9FE5E4ADFF880E139463020524501F80D
:1015B800010D0CD84FF0310C00E09C46C2EB0A0A32
:1015C8000CF101039245DBB2F7D281F800C0AEFB03
:1015D80002328E424FEAD202E8D12E2349462A46E9
:1015E80030468DF80730FFF7C5FEBDF80220531CC2
:1015F80065219BB2B8F12D0FA954ADF8023058D02F
:10160800464ADFF824E13020A24207F8010D08D845
:10161800312100E01946A41A4B1C9442DBB2F9D2DE
:101628003970AEFB0232BE424FEAD202ECD13046EC
:1016380049462A46FFF79EFE04B0BDE8F0872246D9
:10164800044619E70B6805F11000302631241B0405
:101658004CBF147016700B6801325B0082420B603D
:10166800F5D100232B7404B0BDE8F08708287FF477
:10167800CFAE0A68002A40DB2849DFF8ACE001AEAB
:101688000DF10E043027914204F8017D08D831206D
:1016980000E01846521A431C8A42DBB2F9D2207085
:1016A800AEFB0131B4424FEAD101ECD10DF1020990
:1016B800BDE7023205F80380ADF80220A0E7DFEDB0
:1016C800197AB4EEE77AF1EE10FA24D5F0EE676AEB
:1016D800012467EEA67A0134B4EEE77AF1EE10FA47
:1016E800A4B2F6D44FF02D0823E72D220123B1EE42
:1016F800477A2A70ADF80230FDE62D232B700A6870
:10170800012352420A60ADF80230B5E74FF6FF7484
:10171800DFED047A0BE70124E4E700BF00CA9A3B37
:1017280000007A44CDCCCC3DCDCCCCCC2DE9F041D9
:1017380082B0734E0190336B724C734A734943F015
:1017480008033363236843F480732360A36843F476
:101758000073A360336B43F004033363136843F0EF
:10176800087343F400434FF0C0451360942015629A
:10177800516200F0D1F8636923F0100363613220ED
:10178800FEF714FF636943F0100363613220FEF72C
:101798000DFF01200246694600F016FA02A99DF8DD
:1017A800003041F8043D01245948FFF77BF86946A9
:1017B800224602208DF8004000F09CF9AF236946CC
:1017C800224604208DF80030802700F093F96946FE
:1017D800224605208DF8007000F08CF90323694635
:1017E800224606208DF8003000F084F9694622462A
:1017F80008208DF8004000F07DF96946224609204E
:101808008DF8004000F076F9C023694622460E2084
:101818008DF80030002500F06DF9694622460F204A
:101828008DF8005000F066F9694622461A208DF8B6
:10183800005000F05FF9694622461B208DF80050E1
:1018480000F058F96946224614208DF8005000F03F
:1018580051F96946224615204FF09E088DF8005030
:1018680000F048F96946224602208DF8008000F011
:1018780041F94FF4FA70FEF799FE99232846694614
:1018880022468DF8003000F035F969462246472097
:101898008DF8007000F02EF96946224632208DF846
:1018A800007000F027F96946224632208DF8005072
:1018B80000F020F92846694622468DF8005000F0CD
:1018C80019F96946224602208DF8008000F012F9C5
:1018D800336C104A43F400433364336B40F2031112
:1018E80043F4805333631184138C9BB243F4007325
:1018F80040F618611384918302B0BDE8F08100BFFF
:1019080000380240000C02400008024000060600B1
:10191800E8410008003C00400D490E4B0A6B42F0BC
:10192800020210B40A631A680B4C42F482221A604D
:101938009A6842F402229A60DA6842F48222DA60F3
:101948005A6942F410725A6120705DF8044B70476E
:1019580000380240000402408404002010B50A4CFC
:10196800236843F482232360636943F4107363613B
:101978000520FEF753FE636923F4007363610520B5
:10198800BDE81040FEF74ABE0004024010B5134CF3
:10199800636923F0400363610220FEF73FFE23687A
:1019A80043F480432360636923F400736361022076
:1019B800FEF734FE636943F0400363610120FEF7DC
:1019C8002DFE636943F4007363610520FEF726FE6C
:1019D800636943F41073636110BD00BF00040240E3
:1019E80070B5134C236843F4822306462360082508
:1019F800636923F0400363610220FEF70FFE636909
:101A080032064CBF43F4007323F400736361022071
:101A1800FEF704FE636943F0400363610420FEF7A8
:101A2800FDFD6B1E760013F0FF05F6B2E0D170BD28
:101A38000004024070B5134C236823F4402323604C
:101A480008260025636923F0400363610420FEF73C
:101A5800E5FD636943F0400363610220FEF7DEFDA4
:101A680023696D009B05EDB24FF0020048BF45F0B9
:101A78000105FEF7D3FD731E13F0FF06E2D12846D9
:101A880070BD00BF0004024038B5194C636923F0EB
:101A9800400363610120FEF7C1FD636923F400730D
:101AA8006361236823F4402323600420FEF7B6FD16
:101AB800636943F0400363610220FEF7AFFD2369C9
:101AC8009B050CD5254613240120FEF7A7FD2B699D
:101AD800013C13F4007FA4B201D0002CF4D1022001
:101AE800FEF79CFD024A136843F48023136038BD57
:101AF8000004024012B3F8B5013A114F044611FA36
:101B080082F64D1EFFF72AFF3878FFF769FFFFF7C7
:101B1800BBFF2046FFF764FFFFF7B6FF15F8010F7C
:101B2800FFF75EFFFFF7B0FFFFF730FF0520FEF776
:101B38003DFD0134B542E4B2E4D1F8BD704700BFC1
:101B48008404002010B50F4C636923F040036361DF
:101B58000120FEF763FD236843F480232360636953
:101B680023F4007363610420FEF758FD636943F0B2
:101B7800400363610420FEF751FD636923F04003CD
:101B8800636110BD0004024010B50E4C636923F078
:101B9800400363610220FEF741FD236843F480237C
:101BA8002360636943F4007363610220FEF736FD26
:101BB800636943F0400363610420BDE81040FEF709
:101BC8002DBD00BF00040240F8B5184C15460E465E
:101BD8000746FFF7C3FE2078FFF702FFFFF754FF21
:101BE8003846FFF7FDFEFFF74FFFFFF7B7FE2078F7
:101BF80040F00100FFF7F4FEFFF746FFADB1013DED
:101C080016FA85F7741E03E0FFF79CFFBC420CD060
:101C1800FFF710FF04F8010FA31BAB42F4D1FFF745
:101C2800B3FFFFF7B3FEBC42F2D1F8BD8404002035
:101C38000A4A0B4B116B0B4841F001011163116CFF
:101C480041F0005111641A6842F440721A60DA686F
:101C58003D2122F44072DA6001607047003802408A
:101C6800000002400074004005494B68044ADB0745
:101C7800FBD4C0F30B00012390605360704700BF92
:101C880000740040394B3A4A2DE9F0411D6B394F39
:101C9800394C3A4E45F001051D633D6845F44075E1
:101CA8003D601D6C4FF0290845F010054FF0640C9D
:101CB8004FF0840E20271D64A2F82880C2F82CC09B
:101CC800A2F800E09780958AADB245F001059582AB
:101CD8001588ADB245F0010515801A6C42F0005226
:101CE8001A6422684FF4805522F0010222602560B0
:101CF800226842F004022260226842F00102226057
:101D08001A6B002542F400121A63344635602268C3
:101D18001A4BD207FBD41A4A1A4D4FF0FF3494607D
:101D2800D4609D60D86059601A6842F060621A6099
:101D38001A6842F440321A601A6842F480621A60E3
:101D48001A6842F480721A601A6842F400621A60D3
:101D58001A6842F400521A601A6842F040021A6087
:101D68001A6842F001021A60BDE8F08100380240AA
:101D780000100040000002400074004088600240EB
:101D8800006002400874004034460008000000204B
:101D98004C04002050040020740C002081F0004105
:101DA80002E000BF83F0004330B54FEA41044FEA38
:101DB800430594EA050F08BF90EA020F1FBF54EAD3
:101DC800000C55EA020C7FEA645C7FEA655C00F06F
:101DD800E2804FEA5454D4EB5555B8BF6D420CDD40
:101DE8002C4480EA020281EA030382EA000083EAC3
:101DF800010180EA020281EA0303362D88BF30BD63
:101E080011F0004F4FEA01314FF4801C4CEA1131B8
:101E180002D0404261EB410113F0004F4FEA033317
:101E28004CEA133302D0524263EB430394EA050FA2
:101E380000F0A780A4F10104D5F1200E0DDB02FA11
:101E48000EFC22FA05F2801841F1000103FA0EF2A5
:101E5800801843FA05F359410EE0A5F120050EF16B
:101E6800200E012A03FA0EFC28BF4CF0020C43FA9C
:101E780005F3C01851EBE37101F0004507D54FF0A9
:101E8800000EDCF1000C7EEB00006EEB0101B1F5F9
:101E9800801F1BD3B1F5001F0CD349085FEA30003F
:101EA8004FEA3C0C04F101044FEA445212F5800F4A
:101EB80080F09A80BCF1004F08BF5FEA500C50F1E7
:101EC800000041EB045141EA050130BD5FEA4C0CCA
:101ED800404141EB010111F4801FA4F10104E9D153
:101EE80091F0000F04BF01460020B1FA81F308BF4A
:101EF8002033A3F10B03B3F120020CDA0C3208DD16
:101F080002F1140CC2F10C0201FA0CF021FA02F1F0
:101F18000CE002F11402D8BFC2F1200C01FA02F160
:101F280020FA0CFCDCBF41EA0C019040E41AA2BF85
:101F380001EB0451294330BD6FEA04041F3C1CDA4D
:101F48000C340EDC04F11404C4F1200220FA04F06D
:101F580001FA02F340EA030021FA04F345EA030117
:101F680030BDC4F10C04C4F1200220FA02F001FAD9
:101F780004F340EA0300294630BD21FA04F029465B
:101F880030BD94F0000F83F4801306BF81F48011F4
:101F98000134013D4EE77FEA645C18BF7FEA655C67
:101FA80029D094EA050F08BF90EA020F05D054EA39
:101FB800000C04BF1946104630BD91EA030F1EBF3E
:101FC8000021002030BD5FEA545C05D14000494142
:101FD80028BF41F0004130BD14F580043CBF01F535
:101FE800801130BD01F0004545F0FE4141F470011B
:101FF8004FF0000030BD7FEA645C1ABF19461046F6
:102008007FEA655C1CBF0B46024650EA013406BFF6
:1020180052EA033591EA030F41F4002130BD00BFB5
:1020280090F0000F04BF0021704730B54FF4806472
:1020380004F132044FF000054FF0000150E700BFF3
:1020480090F0000F04BF0021704730B54FF4806452
:1020580004F1320410F0004548BF40424FF000013F
:102068003EE700BF42004FEAE2014FEA31014FEA82
:1020780002701FBF12F07F4393F07F4F81F06051D1
:10208800704792F0000F14BF93F07F4F704730B540
:102098004FF4607401F0004521F0004120E700BFD3
:1020A80050EA010208BF704730B54FF000050AE05A
:1020B80050EA010208BF704730B511F0004502D55B
:1020C800404261EB41014FF4806404F132045FEA5D
:1020D800915C3FF4DCAE4FF003025FEADC0C18BF02
:1020E80003325FEADC0C18BF033202EBDC02C2F1F8
:1020F800200300FA03FC20FA02F001FA03FE40EA8A
:102108000E0021FA02F11444C1E600BF70B54FF089
:10211800FF0C4CF4E06C1CEA11541DBF1CEA13556B
:1021280094EA0C0F95EA0C0F00F0DEF82C4481EAD3
:10213800030621EA4C5123EA4C5350EA013518BFF3
:1021480052EA033541F4801143F4801338D0A0FBE0
:1021580002CE4FF00005E1FB02E506F00042E0FB8D
:1021680003E54FF00006E1FB03569CF0000F18BF93
:102178004EF0010EA4F1FF04B6F5007F64F540743B
:1021880004D25FEA4E0E6D4146EB060642EAC621CE
:1021980041EA55514FEAC52040EA5E504FEACE2E3B
:1021A800B4F1FD0C88BFBCF5E06F1ED8BEF1004F3E
:1021B80008BF5FEA500E50F1000041EB045170BDBA
:1021C80006F0004646EA010140EA020081EA0301FE
:1021D800B4EB5C04C2BFD4EB0C0541EA045170BDFA
:1021E80041F480114FF0000E013C00F3AB8014F174
:1021F800360FDEBF002001F0004170BDC4F10004BD
:10220800203C35DA0C341BDC04F11404C4F120053D
:1022180000FA05F320FA04F001FA05F240EA020098
:1022280001F0004221F0004110EBD37021FA04F6CE
:1022380042EB06015EEA430E08BF20EAD37070BD88
:10224800C4F10C04C4F1200500FA04F320FA05F0E7
:1022580001FA04F240EA020001F0004110EBD370E9
:1022680041F100015EEA430E08BF20EAD37070BD59
:10227800C4F1200500FA05F24EEA020E20FA04F332
:1022880001FA05F243EA020321FA04F001F00041E1
:1022980021FA04F220EA020000EBD3705EEA430E52
:1022A80008BF20EAD37070BD94F0000F0FD101F081
:1022B8000046400041EB010111F4801F08BF013CBA
:1022C800F7D041EA060195F0000F18BF704703F0F8
:1022D8000046520043EB030313F4801F08BF013D7F
:1022E800F7D043EA0603704794EA0C0F0CEA13553B
:1022F80018BF95EA0C0F0CD050EA410618BF52EAF5
:102308004306D1D181EA030101F000414FF00000FA
:1023180070BD50EA410606BF1046194652EA430608
:1023280019D094EA0C0F02D150EA013613D195EA7C
:102338000C0F05D152EA03361CBF104619460AD1C4
:1023480081EA030101F0004141F0FE4141F47001CE
:102358004FF0000070BD41F0FE4141F4780170BDBE
:1023680070B54FF0FF0C4CF4E06C1CEA11541DBF23
:102378001CEA135594EA0C0F95EA0C0F00F0A7F825
:10238800A4EB050481EA030E52EA03354FEA013152
:1023980000F088804FEA03334FF0805545EA131365
:1023A80043EA12634FEA022245EA111545EA10652D
:1023B8004FEA00260EF000419D4208BF964244F1C4
:1023C800FD0404F5407402D25B084FEA3202B61AE3
:1023D80065EB03055B084FEA32024FF480104FF4B7
:1023E800002CB6EB020E75EB030E22BFB61A75462B
:1023F80040EA0C005B084FEA3202B6EB020E75EBBE
:10240800030E22BFB61A754640EA5C005B084FEA25
:102418003202B6EB020E75EB030E22BFB61A7546F2
:1024280040EA9C005B084FEA3202B6EB020E75EBFD
:10243800030E22BFB61A754640EADC0055EA060EBE
:1024480018D04FEA051545EA16754FEA06164FEA01
:10245800C30343EA52734FEAC2025FEA1C1CC0D1AD
:1024680011F4801F0BD141EA00014FF000004FF03A
:10247800004CB6E711F4801F04BF01430020B4F1FB
:10248800FD0C88BFBCF5E06F3FF6AFAEB5EB030CB3
:1024980004BFB6EB020C5FEA500C50F1000041EBB0
:1024A800045170BD0EF0004E4EEA113114EB5C047D
:1024B800C2BFD4EB0C0541EA045170BD41F4801150
:1024C8004FF0000E013C90E645EA060E8DE60CEA58
:1024D800135594EA0C0F08BF95EA0C0F3FF43BAF75
:1024E80094EA0C0F0AD150EA01347FF434AF95EA2C
:1024F8000C0F7FF425AF104619462CE795EA0C0F10
:1025080006D152EA03353FF4FDAE1046194622E7DC
:1025180050EA410618BF52EA43067FF4C5AE50EAB6
:1025280041047FF40DAF52EA43057FF4EBAE12E7A6
:102538004FF0FF3C06E000BF4FF0010C02E000BF87
:102548004FF0010C4DF804CD4FEA410C7FEA6C5C6A
:102558004FEA430C18BF7FEA6C5C1BD001B050EA0D
:10256800410C0CBF52EA430C91EA030F02BF90EAF8
:10257800020F0020704710F1000F91EA030F58BFB7
:10258800994208BF90422CBFD8176FEAE37040F019
:10259800010070474FEA410C7FEA6C5C02D150EAB7
:1025A800013C07D14FEA430C7FEA6C5CD6D152EA72
:1025B800033CD3D05DF8040B704700BF8446104637
:1025C80062468C461946634600E000BF01B5FFF736
:1025D800B7FF002848BF10F1000F01BD4DF808ED06
:1025E800FFF7F4FF0CBF012000205DF808FB00BFD7
:1025F8004DF808EDFFF7EAFF34BF012000205DF831
:1026080008FB00BF4DF808EDFFF7E0FF94BF01207D
:1026180000205DF808FB00BF4DF808EDFFF7CEFF7E
:1026280094BF012000205DF808FB00BF4DF808EDBD
:10263800FFF7C4FF34BF012000205DF808FB00BF8E
:102648004FEA4102B2F1E04324BFB3F5001CDCF1CC
:10265800FE5C0DD901F0004C4FEAC0024CEA507004
:10266800B2F1004F40EB830008BF20F00100704733
:1026780011F0804F21D113F13872BCBF01F0004036
:10268800704741F480114FEA5252C2F11802C2F168
:10269800200C10FA0CF320FA02F018BF40F00100E9
:1026A8004FEAC1234FEAD32303FA0CFC40EA0C009B
:1026B80023FA02F34FEA4303CCE77FEA625307D1D8
:1026C80050EA01331EBF4FF0FE4040F4400070470F
:1026D80001F0004040F0FE4040F40000704700BFA9
:1026E8002D2008B5FEF78CF8FEF7F6F9FEF734F85A
:1026F800024800210122FDF7CFFD00BF8804002019
:10270800002103E00B4B5B58435004310A480B4B44
:1027180042189A42F6D30A4A02E0002342F8043BE0
:10272800084B9A42F9D3FDF775FE01F0D7FBFFF786
:10273800D7FF704734460008000000204C040020F2
:1027480050040020740C0020FEE7000000B510EED5
:10275800103A1B4A23F00043934283B01ADDB3F1C9
:10276800FF4F04DB30EE400A03B05DF804FB684617
:1027780000F0C4FC00F0030001289DED000ADDED27
:10278800010A15D002280DD0A8B100F051FEB1EE13
:10279800400AE9E7DFED0B0A002001F0BDF903B0BC
:1027A8005DF804FB012001F0B7F9B1EE400ADBE760
:1027B80000F03EFED8E7012001F0AEF9D4E700BFF3
:1027C800D80F493F00000000F0B52DED048BA74C51
:1027D8008BB0B0EE409AF0EE608A00F097F994F969
:1027E80000300133B0EE408A04D0B0EE680A01F040
:1027F800C9FA28B9B0EE480A0BB0BDEC048BF0BD9D
:10280800B0EE490A01F0BEFA002835D1F5EE408A4B
:10281800F1EE10FAEED1964B0890012219EE100A4B
:102828008DE80C00FFF71EFCCDE9020118EE900AB6
:10283800FFF718FC94F900308E4F00265A1CCDE99A
:102848000401CDE906670DD0022B0BD0684601F0D4
:10285800ABF9002800F0A480089B1BB101F028FB0D
:10286800089B0360DDE90601FFF7EAFE00EE100AA7
:102878000BB0BDEC048BF0BDB5EE409AF1EE10FA4A
:1028880023D1F5EE408AF1EE10FA5CD10123784AA3
:10289800009319EE100A002308930192FFF7E2FB58
:1028A800CDE9020118EE900AFFF7DCFB94F900303D
:1028B80000260027CDE90401CDE90667002BC5D025
:1028C8006C4B0022CDE90623CCE7B0EE480A01F0B4
:1028D80007FA0546002868D0B5EE408AF1EE10FAEE
:1028E80088D1B0EE490A01F0FBF9002882D0B0EE99
:1028F800680A01F0F5F900283FF47CAF04235C4A2C
:10290800009319EE100A002308930192FFF7AAFB1F
:10291800CDE9020118EE900AFFF7A4FB94F9003004
:1029280000260027022BCDE90401CDE9066700F057
:102938009880684601F038F9002800F09280089BDA
:10294800002B8FD08AE7B0EE680A01F0C9F9002899
:102958003FF450AFF5EEC08AF1EE10FA7FF54AAFBA
:102968000123434A009319EE100A002308930192A9
:10297800FFF778FBCDE9020118EE900AFFF772FB2A
:102988002378CDE90401002B43D03B490020022BDA
:10299800CDE9060137D101F08BFA21230360CEE798
:1029A80001F086FA2123036056E7B0EE490A01F0E8
:1029B80097F9002890D0B0EE680A01F091F9002844
:1029C8008AD0B0EE480A01F0DDF938BB284B0890F0
:1029D800012219EE100A8DE80C00FFF743FBCDE940
:1029E800020118EE900AFFF73DFB2478CDE90401B7
:1029F8007CB10020002102460B46FFF7B1FC022CF7
:102A0800CDE90601C7D0684601F0CEF8002896D176
:102A1800C1E700220023CDE90623F4E7144B08950B
:102A2800032219EE100A8DE80C00FFF71BFBCDE915
:102A3800020118EE900AFFF715FB94F90030CDE972
:102A48000401EBB90D4BB5EEC09A4FF06042F1EEC0
:102A580010FACDE9062337D494F90030022B7FF41D
:102A680068AF01F025FA2223036068E71900002007
:102A7800004200080000F03F0000F0FFFFFFEF47B2
:102A88001F4BB5EEC09A0022F1EE10FACDE90623ED
:102A9800E2D5F6EE007A68EEA77A17EE900AFFF70D
:102AA800E1FA06460F4647EC106B01F07FF8304616
:102AB800394653EC102BFFF791FD0028CCD1114B70
:102AC8000022CDE90623C7E7F6EE007A68EEA77A7A
:102AD80017EE900AFFF7C6FA06460F4647EC106B4A
:102AE80001F064F83046394653EC102BFFF776FDB9
:102AF8000028B1D1044B4FF06042CDE90623ABE783
:102B08000000F07F0000F0FFFFFFEFC72DE9F04362
:102B18002DED028B10EE905A83B035F0004610EE82
:102B2800904A8DED010A14D0DDF8048028F00047A2
:102B3800B7F1FF4F07DD574803B0BDEC028BBDE886
:102B4800F04301F03BB9B6F1FF4F09DDB7F17E5F05
:102B5800F1D1B7EE000A03B0BDEC028BBDE8F083FB
:102B6800B8F1000F52DB4FF00009B6F1FF4F44D027
:102B7800B6F17E5F5DD0B4F1804F69D0B4F17C5F6F
:102B88009DED010A1BD001F0A3F8B7F1FF4F2AD041
:102B98004FB3B7F17E5F26D04FEAD873013B59EAAD
:102BA80003026FD0B6F19A4F7CDD3B4A974200F39F
:102BB800DB81002CC0F2DE819FED380ACBE7B8F14B
:102BC800000F4ADA01F084F8B7F1FF4F01D0002F67
:102BD800DFD1A7F17E5759EA07034CD130EE400AFE
:102BE80080EE000AB7E7002CBCBFF7EE007A87EE4C
:102BF800800AB8F1000FAEDAEBE7B7F17E5FA8D034
:102C08001FDD002CD8DB00EE105AA4E7B6F1974F71
:102C180014DAB6F17E5F09DBF315C3F1960346FAC1
:102C280003F202FA03F3B34200F094814FF0000973
:102C38009EE7002C18DB9DED010A8CE74FF0020996
:102C480093E7002CB8DA07EE905AB1EE670A82E7EC
:102C5800DDED017A27EEA70A7DE703B0BDEC028B14
:102C6800BDE8F04300F092BBDDED017AB7EE000A53
:102C780080EE270A6FE7B9F1010F7FF46CAFB1EE70
:102C8800400A68E7DDED017A37EEE70A80EE000AD0
:102C980061E700BFFC410008F7FF7F3F000000002C
:102CA8000000804BB7F5000F80F25C815FED047A7D
:102CB80060EE277A6FF0170117EE907AF048FA1550
:102CC800C7F316077F3A8742114447F07E5240F314
:102CD8004681EC48874240F39B8100260131A2F5EA
:102CE80000023046DFF80CC49FEDE72A9FEDE78A23
:102CF8009FEDE70ADFEDE70A9FEDE71ADFEDE71A38
:102D0800E74FDFEDE87ADFEDE82A9FEDE84ADFF8E4
:102D1800E8E38000844407EE102ADCED006A77EED1
:102D2800265AB7EE006AC6EE255A521042F00052F3
:102D380002F58022324437EE666A04EE902A26EEC7
:102D4800253A74EEE66A23EE035A37EE667AF0EE19
:102D5800426AE5EE086A3A18704413EE106A26F4DF
:102D68007F66A6EE850A26F00F0603EE906AB1EE9E
:102D7800632AA2EE246AE0EE050AA2EE076AA0EE34
:102D8800851A66EE255AE1EE051A33EE237A25EE0A
:102D9800055A27EE257AF0EE084AB0EE646AA5EEE9
:102DA800217AA3EEA36AD2ED001A90ED005A36EE0E
:102DB800076A06EE901A16EE102A22F47F6222F0B5
:102DC8000F0206EE102A76EE644AF8EEE66AE2EEA4
:102DD800234A37EE647A27EE037AA5EE867AF0EE78
:102DE800475AE3EE865A15EE902A22F47F6222F0C3
:102DF8000F0204EE902AE2EE064A05EE902A37EE1C
:102E0800647A67EE277AE5EEA27A77EEA17AB0EED9
:102E1800677AA5EE847A37EE057A37EE267A17EECA
:102E2800102A22F47F6222F00F0207EE102A77EEB2
:102E3800666A36EEC57AA5EEC47A77EEC77A24F4C8
:102E48007F6424F00F0407EE105A06EE904A67EEEE
:102E5800277A77EE666A06EE104A07EE102A27EE02
:102E6800067A06EE102AE6EE867A09F1FF3959EA63
:102E78000303B7EE000A77EE876ABFEE006A16EE24
:102E8800903A0CBFB0EE468AB0EE408A002B23F091
:102E9800004240F3AA80B2F1864F7BDC6FD0B2F1DA
:102EA8007C5F7EDC0022104623F47F6323F00F034F
:102EB80006EE103ADFED7E6A9FED7E2ADFED7E3A60
:102EC800DFED7E2A9FED7E4ADFED7E4A9FED7E5A3A
:102ED800DFED7E5A36EE477AB0EE003A77EEC77AE3
:102EE80026EE267AB7EE000AA7EE827AF0EE476A57
:102EF800E6EE236AF0EE477A26EEA67AB0EE662A68
:102F0800A7EE224AA6EE632AE4EE074AB0EE666A06
:102F1800A4EE875A77EEC27AE5EE075AE6EEA77A6C
:102F2800A5EEC76A26EE867A36EE436A87EE067AFB
:102F380077EE677A77EEE67A30EE670A10EE103AA7
:102F48001344B3F5000FC0F2988000EE103A28EE53
:102F5800000A00E602F00102C2F1020908E60026B2
:102F68003046BFE60021A9E6594A974254DD002CB5
:102F78007FF722AE9FED570A20EE000AEBE59FEDA2
:102F8800566A76EEC76A37EE866AB4EEE66AF1EEFE
:102F980010FA06DDDFED4F7A28EE270A20EE270A21
:102FA800D9E5D2154FF400017E3A41FA02F21A44EB
:102FB800C2F3C751494CA1F17F052C41C2F3160059
:102FC80022EA040206EE902AC1F1960140F40000BC
:102FD80037EE667A084180EAE37077EE876A00EB9D
:102FE800D370C20516EE903A5EE73D498A4208DC86
:102FF8007FF455AF76EEC76AF4EEE67AF1EE10FA92
:10300800CFD8DFED387A28EE270A20EE270AA2E586
:103018004FF40016012065E6F7EE007A30EE670AF5
:10302800DFED1C6ADFED307A9FED305A9FED306A94
:10303800F1EE405AB5EE007AE5EE876AB6EE007A10
:10304800A6EEC07AF0EE476A20EE007A27EE267ADE
:1030580067EEC77AE0EE057AB0EE677AA0EE067AF8
:1030680017EE102A22F47F6222F00F0207EE102AD0
:10307800A5EE867A77EEC77AE1E600F0A5FE66E768
:1030880071C41C00D6B35D0055326C3E42F1533E0C
:1030980005A38B3EABAAAA3EB76DDB3E9A99193FB2
:1030A800104200084F38763FA0C39D360038763F5F
:1030B8008CBEBF351872313F0072313F4CBB313383
:1030C8000EEADDB555B38A38610B36BBABAA2A3E8A
:1030D8000700803FCAF249713CAA3833FFFF7F00DE
:1030E800000016436042A20D3BAAB83F70A5EC361B
:1030F80000AAB83F184200080842000870B510EE50
:10310800103A944A23F00044944286B010EE106AB4
:10311800054666DD904A94421ADC002BDFED8F7A73
:103128008F4A24F00F0440F3DD80944270EE677AF2
:1031380066D09FED8C7A77EEC76A012077EEE67A43
:10314800C5ED006A77EEC77AC5ED017A06B070BDA5
:10315800854A944266DDB4F1FF4F49DAE215863AB2
:10316800A4EBC25307EE103AFDEEC76ADFED7F7A93
:10317800F8EEE66A37EE667ACDED036A27EE277A2F
:10318800FDEEC76AF8EEE66A37EE667ACDED046AB8
:1031980067EE277AF5EE407AF1EE10FACDED057A72
:1031A80040F0B380F5EE406AF1EE10FA14BF022346
:1031B80001236F4902208DE8030003A8294600F087
:1031C800B9F9002E12DA95ED007AD5ED017AB1EE53
:1031D800477AF1EE677A404285ED007AC5ED017ACB
:1031E80004E0002285ED000A4260002006B070BDB0
:1031F80070EE407A0020C5ED017AC5ED007AF5E75A
:10320800DFED5C6A9FED5C7A77EEE67A012077EE77
:10321800C76A77EEE67AC5ED006A77EEC77AC5ED3C
:10322800017AE3E700F054FDDFED546ADFED4B5A15
:103238009FED4C7AF6EE007AE0EE267AFDEEE77A1C
:1032480017EE900AF8EEE76A1F28B1EE666AA6EE56
:10325800250A66EE877A1DDC494A411E24F0FF03E1
:1032680052F82120934215D030EE677A85ED007A26
:1032780030EE470A002E30EE670A85ED010AB5DA0E
:10328800B1EE477AB1EE400A85ED007A85ED010A84
:103298004042ABE730EE677AE41517EE103AC3F315
:1032A800C753E31A082BE1DDDFED327A9FED327A5E
:1032B800F0EE405AE6EE275A30EE650AA6EE270AE7
:1032C800F0EE407AD6EE877A35EEE77A17EE103AC6
:1032D800C3F3C753E41A192C2CDC85ED007AB0EE41
:1032E800650AC5E7944270EE277A10D09FED1D7AE3
:1032F80077EE876A4FF0FF3077EEE67AC5ED006A21
:1033080077EE877AC5ED017A70E7032351E7DFEDA1
:10331800196A9FED197A77EEA67A4FF0FF3077EEAB
:10332800876A77EEE67AC5ED006A77EE877AC5EDAB
:10333800017A5BE79FED137A9FED135AB0EE650AA9
:10334800A6EE070A75EEC07AE6EE077AD6EE857A1B
:103358008AE700BFD80F493FE3CB1640800FC93F2B
:10336800D00FC93F43443537800F4943000080439D
:10337800A04200080044353708A3852E84F9223F6F
:103388002042000800A3852E32318D2410EE103A19
:1033980023F00042B2F1FF4F70B430D26AB3002B71
:1033A8003DDBB2F5000F4FEAE3512CD3A1F17F02C8
:1033B800C3F31603D10743F4000348BF5B0000249E
:1033C80056105B00254619214FF08072A8189842C4
:1033D80002DC1B1A8518144401394FEA43034FEAEB
:1033E8005202F3D113B104F001031C44641004F138
:1033F8007C5404EBC65300EE103A70BC7047A0EE44
:10340800000A70BC704713F400020DD15B0018026B
:1034180002F10102FAD5C2F101021144C6E730EE09
:10342800400A80EE000AE8E701221144BEE700BF27
:1034380010EE103A23F00043B3F1485F2CDAFDEEAA
:10344800C07A17EE903A002B60D020EE007ADFEDBC
:10345800314A9FED315ADFED315A9FED316ADFED88
:10346800317ADFED316AA7EE245AE5EE075AA5EE68
:10347800876AE6EE077AE7EE876A66EE876A60EEA5
:10348800C00AB6EE006AE7EE260AF7EE007AD7EE33
:10349800060A37EEE00A704720EE007ADFED1D4A93
:1034A8009FED1D5ADFED1D5A9FED1D6ADFED1D7A58
:1034B800DFED1D6A1D4AA7EE245A9342E5EE075A2E
:1034C800A5EE876AE6EE077AE7EE876A66EE876A10
:1034D800D5DD174A934214DC03F17F4307EE903A97
:1034E800B7EE006A36EE676A60EEC00AF6EE005A7A
:1034F800E7EE260AD7EE257A77EEE07A36EE670A07
:103508007047B6EE076AF5EE027AEDE7B7EE000A05
:10351800704700BF4ED747ADF6740F317CF293B4B5
:10352800010DD037610BB6BAABAA2A3D9999993EDD
:103538000000483F2DE9F04F2DED048BD7B05F1EFA
:10354800D74C649D0293D31E48BF131D54F82560C1
:103558000191DB1023EAE3736FEA030BB9190393B4
:10356800824602EBCB0BA3EB070314D419446598EE
:1035780001311AAA002BAABF50F82340DFEDCC7AFC
:1035880007EE904A03F10103A8BFF8EEE77A8B42F1
:10359800E2EC017AEED1002E1ADB029B1AA9741C08
:1035A80001EB840442A89D00002FC0F2BA81DFED30
:1035B800C07A52464B1933ED017AF2EC016A99420E
:1035C800E6EE877AF7D10431A142E0EC017AEBD13B
:1035D800029ADFEDB48A9FEDB48A06F18043013B7D
:1035E8009B00C2EB827906AA03F1040813449044B5
:1035F80004934FEA89093446A50056AB2B44002CA6
:1036080013ED140A18DD42A94B1905AA60EE287AB1
:10361800B0EE407AFDEEE77A73ED016AF8EEE77AEC
:103628008B42A7EEC87A37EEA60ABDEEC77A17EE28
:10363800100A42F8040FE9D1584600F0C5FBB0EE75
:10364800409AB4EE000A29EE000A00F053FBF2EEAD
:10365800007AA0EE679ABBF1000FFDEEC99AF8EE6A
:10366800E97A39EE679A40F34181601E06AACBF1E8
:10367800080352F8201041FA03F202FA03F30DF19D
:10368800180EC91A4EF8201019EE900A1044CBF102
:10369800070309EE900A1941002939DD19EE903A1D
:1036A800002C03F1010309EE903A40F3CB8100228C
:1036B80010460DF1140E08E0C3F5807C13B1CEF866
:1036C80000C00120013294420CDD5EF8043F00285E
:1036D800F2D00132C3F1FF039442CEF800304FF02C
:1036E8000100F2DCBBF1000F10DDBBF1010F00F0AF
:1036F8000481BBF1020F09D1621E06AB0DF1180E51
:1037080053F8223003F03F034EF82230022959D0F3
:10371800B5EE409AF1EE10FA66D1631E9E420BDCBC
:1037280006AA1544002255F8040D454542EA000250
:10373800F9D1002A40F07081731E06AA52F823308E
:10374800002B40F07C81049B4FF0010E53F8042DB0
:103758000EF1010E002AF9D0A644631C73452FDC34
:10376800039A9D18029A05F18045A0180EEB020CE9
:10377800659A013D02EB85051AAA02EB800002EB6F
:103788008C0C42AA02EB830455F8043F07EE903AEA
:10379800F8EEE77A002FE0EC017ADFED457A0BDBF3
:1037A800524600EB0901034633ED017AF2EC016A57
:1037B8008B42E6EE877AF7D16045E4EC017AE3D1F3
:1037C800744619E7B7EE000A30EE499A00289FD0F0
:1037D8005846059100F0F8FA39EE409A0599B5EE89
:1037E800409AF1EE10FA98D0B0EE490ACBF10000F9
:1037F800029100F0E9FA9FED2C7A0299B4EEC70A1B
:10380800F1EE10FAC0F27E81DFED267A60EE277ABB
:1038180006A8FDEEE77A631CF8EEE77A0BF1080BD1
:10382800A7EEC70AFDEEE77ABDEEC00A10EE102A31
:1038380040F8242017EE902A40F823205846B7EE87
:10384800000A0393029100F0BFFA039B0299002B30
:10385800C0F2C78003F1010E4FEA8E0242AC06A8FF
:103868009FED107A1044A71870ED017AF8EEE77A08
:1038780067EE807A20EE070A67ED017AA742F3D156
:10388800043A17440025002EC0F2A880002DC0F28B
:10389800A580064CDFED067A384600220CE000BF12
:1038A800B84500080000803B00008043C44500087C
:1038B80000000000AA4208DCF4EC016AB0EC017ACE
:1038C80001329642E6EE877AF4DA56AA02EB8502CE
:1038D80001357545A7F1040742ED287AD3D1649ADA
:1038E800032A5FD8DFE802F0673737B010D1631ECC
:1038F80006AA52F823100912CEE6621E06AB0DF195
:10390800180E53F8223003F07F034EF82230FDE6FC
:10391800F6EE007AB4EEE79AF1EE10FA0ADA002130
:10392800F6E65FED1D7A0431A142E0EC017A7FF4FE
:103938003BAE4DE619EE903A002C03F1010309EE77
:10394800903AC8BF02213FF7B2AEF7EE007A37EEE1
:10395800C99A0221DCE62EAA5FED2B7A02EB8E0EC5
:103968003EED017A964577EE877AF9D1002943D062
:10397800DDED2E6A019AB1EE677A002B76EEE77AD2
:1039880082ED007A09DD2FA80122B0EC017A01321C
:10399800934277EE877AF8DA09B1F1EE677A019BFC
:1039A800C3ED017A19EE903A03F0070057B0BDEC69
:1039B800048BBDE8F08F2EAA5FED437A02EB8E0EE2
:1039C8003EED017A013B5A1C77EE877AF8D109B1AE
:1039D800F1EE677A019BC3ED007AE3E75FED4C7A7D
:1039E80073E7649A032ADDD8DFE802F01302028045
:1039F8005FED517A0029BBD19DED2E7A019A002BFB
:103A0800C2ED007A77EE677ABDDC019BC3ED017ADF
:103A1800C8E75FED597ADAE706AAABF1080B52F866
:103A28002320002A7FF40AAF06AA02EB830252F889
:103A3800040D013BABF1080B0028F8D0FEE64FF06F
:103A4800010E89E600204DE6002B4FDD9A0056A8AE
:103A580010442EAD141D10ED287A2C44A81870EDD2
:103A6800017A77EE276AA84277EEE67A77EE277A28
:103A7800B0EE667A64ED017AC0ED006AEFD1012BF1
:103A880034DD131D56AC1444034414ED287A024463
:103A98002FAC184672ED017A77EE876AA24277EE6C
:103AA800E67A77EE877AB0EE667A60ED017AC2ED53
:103AB800006AEFD15FED827A30AA33ED017A934242
:103AC80077EE877AF9D1A9B1DDED2E6A9DED2F7ACF
:103AD800019AF1EE677AF1EE666AB1EE477AC2EDC5
:103AE800027AC2ED006A82ED017A5BE75FED907AB7
:103AF8000029E9D101982E9A2F9BC0ED027A026025
:103B080043604FE7BDEEC00A06A810EE102A234610
:103B180040F8242092E600BF10EE103A23F000434C
:103B2800B3F1485F04DAFDEEC07A17EE903A23B39A
:103B380060EE007A9FED155ADFED155A9FED156A74
:103B4800DFED156A9FED157AE7EE855A27EE805A64
:103B5800A5EEA76AE6EE276AA6EEA77A70B127EE69
:103B6800457AF6EE006AA0EEA67ADFED0D6AD7EE8A
:103B7800270AE5EE260A30EE600A7047DFED096A8B
:103B8800E7EE876AA6EE850A704700BFD3C92E2FD5
:103B9800342FD7B21BEF3836010D50B98988083C4D
:103BA800ABAA2A3EABAA2ABE00207047F0B551EC5A
:103BB800100BC1F30A56A6F2FF32132A83B00B4644
:103BC80010EE107A4FEAD17405462FDC002A48DB44
:103BD8003D4E164106EA010707432CD076083140CE
:103BE8000D430CD04FF48021132A23EA060641FA2C
:103BF80002F343EA06030CBF4FF000450025334AA1
:103C080002EBC4042846D4E900450246294620466A
:103C1800FEF7CAF8CDE9000122462B46DDE900018E
:103C2800FEF7C0F841EC100B03B0F0BD332A06DDF7
:103C3800B2F5806F3FD041EC100B03B0F0BDA6F297
:103C480013464FF0FF32F2400242F4D052080242CB
:103C5800D5D04FF0804127EA020241FA06F5154314
:103C6800CDE721F000420243E5D0C1F31302174328
:103C78007A421743154A4B0C3F0B5B0407F40027A5
:103C880002EBC40247EA0301D2E900670B46024689
:103C980039463046FEF788F8CDE900013B46324602
:103CA800DDE90001FEF77EF821F0004343EAC47124
:103CB80041EC100BC1E710EE102A0B46FEF774F822
:103CC80041EC100BB9E700BFFFFF0F00F0450008FB
:103CD80010EE103A23F0004300EE103A704700BF90
:103CE80010EE103A23F00040B0F1FF4FACBF0020B7
:103CF8000120704710EE102A22F00041CB0D7F3BC7
:103D0800162B17DC002B10EE100A19DB1A49194183
:103D1800114222D0DFED197A70EE277AF5EEC07ADB
:103D2800F1EE10FA19DD002A18DB20EA010300EE93
:103D3800103A7047B1F1FF4F0FD330EE000A7047C9
:103D4800DFED0E7A70EE277AF5EEC07AF1EE10FA12
:103D580003DD002A08DB9FED0A0A70474FF40002D2
:103D680042FA03F31844E0E70029FFEE007A18BF8F
:103D7800B0EE670A704700BFFFFF7F00CAF24971C3
:103D88000000000010EE103A33F0004001D102208C
:103D98007047A0F50003B3F1FE4F01D2042070472D
:103DA800054B421E9A4201D803207047A0F1FF40FC
:103DB800B0FA80F040097047FEFF7F009FED010ACE
:103DC800704700BF0000C07F08B510EE103A33F00E
:103DD80000422DED028B11D0B2F1FF4F11D2B2F596
:103DE800000F13D3D20D0244FE2A2EDC002A1ADD5E
:103DF80023F0FF4343EAC25300EE103ABDEC028BB6
:103E080008BDBDEC028B30EE000A08BD1D4BDFED8E
:103E18001E7A984220EE270A22DB10EE103AC3F3EE
:103E2800C752193ADFE712F1160F1EDA4CF2503377
:103E380098420ADC9FED158AF0EE400AB0EE480A77
:103E480000F02AF820EE080AD8E79FED118AF0EE74
:103E5800400AB0EE480A00F01FF820EE080ACDE745
:103E6800DFED0A0A20EE200AC8E7193223F0FF43E3
:103E780043EAC253DFED077A00EE103A20EE270A34
:103E8800BCE700BFB03CFFFF0000004C6042A20D41
:103E9800CAF249710000003310EE103A23F00042D4
:103EA80010EE903A03F00043134300EE103A7047C7
:103EB800014B1868704700BF4804002008B500216E
:103EC800044600F08BF8044B1868C36B03B198479D
:103ED800204600F0A1FB00BF0046000870B50F4E59
:103EE8000F4D761BB61018BF002405D0013455F8C5
:103EF800043B9847A642F9D10A4E0B4D761B00F0B9
:103F08007FFBB61018BF002406D0013455F8043BD7
:103F18009847A642F9D170BD70BD00BF2846000879
:103F280028460008304600082846000870B4840770
:103F380046D0541E002A41D0CDB2034602E0621E8C
:103F4800E4B3144603F8015B9A07F8D1032C2ED981
:103F5800CDB245EA05250F2C45EA054519D903F1E7
:103F680010022646103E0F2E42F8105C42F80C5CF8
:103F780042F8085C42F8045C02F11002F2D8A4F19D
:103F8800100222F00F0204F00F041032032C134425
:103F98000DD91E462246043A032A46F8045BFAD88D
:103FA800221F22F003020432134404F003042CB14C
:103FB800C9B21C4403F8011BA342FBD170BC704773
:103FC80014460346C2E700BF024B13B1024800F093
:103FD8006FB8704700000000C54000082DE9F04F99
:103FE800314B83B01B68009303F5A47381460E46DA
:103FF8000193009BD3F8487127B3DDF804A07C68CF
:10400800651E0ED4013407EB84044FF00008E6B1B6
:10401800D4F80031B34218D0013D6B1CA4F104045C
:10402800F5D1224B73B17B68002B36D13B68002B4E
:1040380034D03846CAF80030AFF30080DAF80070A0
:10404800002FDCD103B0BDE8F08F7B682268013B0C
:10405800AB420CBF7D60C4F80080002ADCD0D7F8E2
:104068008831D7F804B00121A940194208D19047F6
:104078007B685B45BDD1DAF80030BB42CCD0B8E7ED
:10408800D7F88C31194204D14846D4F880109047AB
:10409800EEE7D4F880009047EAE73B68BA461F4647
:1040A800002FACD1CEE700BF00460008000000009A
:1040B800014600200246034600F016B838B5084B02
:1040C800084DED1AAC1018BFED1805D0013C55F895
:1040D800043D9847002CF9D1BDE8384000F096BA65
:1040E80030460008344600082DE9F047254C25687D
:1040F800D5F848410646884692469946CCB360684A
:104108001F2818DC431C7EB104EB80050121C5F88B
:1041180088A0D4F8887101FA00F21743022EC4F877
:104128008871C5F808911ED00230636044F8208079
:104138000020BDE8F087144B03B34FF4C870AFF309
:1041480000800446D0B1D5F84831002780E88800BF
:10415800C5F8484138460123C4F88871C4F88C7101
:10416800002EE1D0D0E7D4F88C110A43C4F88C2192
:10417800DAE705F5A674C5F84841C0E74FF0FF3007
:10418800BDE8F0870046000800000000FEE700BF19
:104198004300000043697300440000004469730051
:1041A8004600000046697300470000004769730035
:1041B80041000000416973004800000043320000DC
:1041C80050415553450000004F6374617665205592
:1041D800700000004F637461766520446F776E004D
:1041E8002D3E20435334334C32323A204944205B2D
:1041F80025685D0A00000000706F77660000000007
:104208000000000000C0153F00000000DCCFD135E1
:104218000000803F0000C03F000FC93F000F494029
:1042280000CB9640000FC9400053FB4000CB16411D
:1042380000ED2F41000F49410031624100537B419D
:10424800003A8A4100CB9641005CA34100EDAF41A2
:10425800007EBC41000FC94100A0D5410031E241B8
:1042680000C2EE410053FB4100F20342003A0A4209
:104278000083104200CB164200141D42005C23420A
:1042880000A5294200ED2F4200363642007E3C420E
:1042980000C74242000F4942A2000000F900000096
:1042A800830000006E0000004E0000004400000083
:1042B8001500000029000000FC0000002700000095
:1042C80057000000D1000000F50000003400000095
:1042D800DD000000C0000000DB00000062000000FC
:1042E80095000000990000003C0000004300000019
:1042F8009000000041000000FE0000005100000096
:1043080063000000AB000000DE000000BB000000FE
:10431800C500000061000000B70000002400000094
:104328006E0000003A000000420000004D0000004E
:10433800D2000000E0000000060000004900000074
:104348002E000000EA00000009000000D100000073
:10435800920000001C000000FE0000001D0000008C
:10436800EB0000001C000000B10000002900000064
:10437800A70000003E000000E800000082000000E6
:1043880035000000F50000002E000000BB00000012
:104398004400000084000000E90000009C000000C8
:1043A8007000000026000000B40000005F0000005C
:1043B8007E0000004100000039000000910000006C
:1043C800D600000039000000830000005300000000
:1043D80039000000F40000009C0000008400000088
:1043E8005F0000008B000000BD000000F900000025
:1043F800280000003B0000001F000000F80000003B
:1044080097000000FF000000DE000000050000002B
:10441800980000000F000000EF0000002F000000CF
:10442800110000008B0000005A0000000A00000084
:104438006D0000001F0000006D0000003600000045
:104448007E000000CF00000027000000CB00000025
:1044580009000000B70000004F00000046000000FF
:104468003F000000660000009E0000005F000000A2
:10447800EA0000002D000000750000002700000081
:10448800BA000000C7000000EB000000E5000000D3
:10449800F10000007B0000003D0000000700000064
:1044A80039000000F70000008A00000052000000F8
:1044B80092000000EA0000006B000000FB00000012
:1044C8005F000000B10000001F0000008D00000028
:1044D8005D00000008000000560000000300000016
:1044E8003000000046000000FC0000007B000000D7
:1044F8006B000000AB000000F0000000CF000000DF
:10450800BC000000200000009A000000F400000039
:10451800360000001D000000A9000000E3000000B4
:1045280091000000610000005E000000E60000004D
:104538001B00000008000000650000009900000052
:10454800850000005F00000014000000A0000000CB
:1045580068000000400000008D000000FF0000001F
:10456800D8000000800000004D000000730000002B
:1045780027000000310000000600000006000000CF
:104588001500000056000000CA000000730000007B
:10459800A8000000C900000060000000E200000060
:1045A8007B000000C00000008C0000006B000000D1
:1045B8000400000007000000090000000000C93FD7
:1045C8000000F0390000DA370000A2330000842E22
:1045D8000000502B0000C2270000D0220000C41F9A
:1045E8000000C61B00004417000000000000304314
:1045F80000000000000030C3200000200000000080
:10460800F8B500BFF8BC08BC9E467047F8B500BFB7
:08461800F8BC08BC9E46704787
:08462000C4BBFF7F0100000094
:08462800D13F0008AD010008BC
:0446300089010008F4
:10463400000000000000000000000000010203046C
:1046440006070809007A030A0401000000000000BC
:10465400000000000C03002074030020DC03002091
:104664000000000000000000000000000000000046
:104674000000000000000000000000000000000036
:104684000000000098410008000000000000000045
:104694000000000000000000000000000000000016
:1046A4000000000000000000000000000000000006
:1046B40000000000000000000000000000000000F6
:1046C40000000000000000000000000000000000E6
:1046D40000000000000000000000000000000000D6
:1046E40000000000000000000000000000000000C6
:1046F40000000000000000000100000000000000B5
:104704000E33CDAB34126DE6ECDE05000B00000079
:104714000000000000000000000000000000000095
:104724000000000000000000000000000000000085
:104734000000000000000000000000000000000075
:104744000000000000000000000000000000000065
:0C4A7400000000000000000020000020F6
:044A80000000000032
:0400000508002709BF
:00000001FF
